{
  "_format": "hh-sol-artifact-1",
  "contractName": "PriceConsumerV3",
  "sourceName": "contracts/PriceConsumerV3.sol",
  "abi": [
    {
      "inputs": [],
      "name": "getLatestPrice",
      "outputs": [
        {
          "internalType": "int256",
          "name": "",
          "type": "int256"
        }
      ],
      "stateMutability": "view",
      "type": "function"
    },
    {
      "inputs": [],
      "name": "priceFeed",
      "outputs": [
        {
          "internalType": "contract AggregatorV3Interface",
          "name": "",
          "type": "address"
        }
      ],
      "stateMutability": "view",
      "type": "function"
    },
    {
      "inputs": [
        {
          "internalType": "address",
          "name": "contractAddress",
          "type": "address"
        }
      ],
      "name": "setPriceRequest",
      "outputs": [],
      "stateMutability": "nonpayable",
      "type": "function"
    }
  ],
  "bytecode": "0x608060405234801561001057600080fd5b5061041b806100206000396000f3fe608060405234801561001057600080fd5b50600436106100415760003560e01c80632bb26bb514610046578063741bef1a146100625780638e15f47314610080575b600080fd5b610060600480360381019061005b9190610215565b61009e565b005b61006a6100e1565b60405161007791906102d3565b60405180910390f35b610088610105565b60405161009591906102ee565b60405180910390f35b806000806101000a81548173ffffffffffffffffffffffffffffffffffffffff021916908373ffffffffffffffffffffffffffffffffffffffff16021790555050565b60008054906101000a900473ffffffffffffffffffffffffffffffffffffffff1681565b60008060008060008060008054906101000a900473ffffffffffffffffffffffffffffffffffffffff1673ffffffffffffffffffffffffffffffffffffffff1663feaf968c6040518163ffffffff1660e01b815260040160a06040518083038186803b15801561017457600080fd5b505afa158015610188573d6000803e3d6000fd5b505050506040513d601f19601f820116820180604052508101906101ac919061023e565b94509450945094509450839550505050505090565b6000813590506101d081610389565b92915050565b6000815190506101e5816103a0565b92915050565b6000815190506101fa816103b7565b92915050565b60008151905061020f816103ce565b92915050565b60006020828403121561022757600080fd5b6000610235848285016101c1565b91505092915050565b600080600080600060a0868803121561025657600080fd5b600061026488828901610200565b9550506020610275888289016101d6565b9450506040610286888289016101eb565b9350506060610297888289016101eb565b92505060806102a888828901610200565b9150509295509295909350565b6102be81610365565b82525050565b6102cd8161031b565b82525050565b60006020820190506102e860008301846102b5565b92915050565b600060208201905061030360008301846102c4565b92915050565b600061031482610325565b9050919050565b6000819050919050565b600073ffffffffffffffffffffffffffffffffffffffff82169050919050565b6000819050919050565b600069ffffffffffffffffffff82169050919050565b600061037082610377565b9050919050565b600061038282610325565b9050919050565b61039281610309565b811461039d57600080fd5b50565b6103a98161031b565b81146103b457600080fd5b50565b6103c081610345565b81146103cb57600080fd5b50565b6103d78161034f565b81146103e257600080fd5b5056fea2646970667358221220c5a2727905345cdf1bdaf78be53358c8a71491db4497131c5ee58d20c071feed64736f6c63430008030033",
  "linkReferences": {},
  "deployedLinkReferences": {}
}